:030000000203C236
:0C03C200787FE4F6D8FD75810702037611
:10000300900005EBF0A3EAF0A3E9F0A3ECF0A3ED75
:01001300F0FC
:10001400E4A3F0A3F0900009E024FFFF900008E0BF
:1000240034FFFEC390000BE09FEE6480F890000A5A
:10003400E064809840030201C2E490000CF0A3F055
:1000440090000AE0FEA3E0FFC3900009E09FFF9048
:100054000008E09ECF24FFCF34FFFE90000CE0FCAC
:10006400A3E0FDC39FEE6480F8EC64809840030233
:1000740001AEED2401FFE43CFEEF7802C333CE333E
:10008400CED8F9FF900005E0FBA3E0FAA3E0F98FD6
:10009400828E8312020FC004C005C006C007900000
:1000A4000CE0FEA3E07802C333CE33CED8F9FF9040
:1000B4000005E0FBA3E0FAA3E0F98F828E8312022D
:1000C40063D007D006D005D004C31201F94003025F
:1000D400019A90000CE0FEA3E07802C333CE33CE45
:1000E400D8F9FF900005E0FBA3E0FAA3E0F98F82C2
:1000F4008E8312020F90000E12029390000DE024E2
:1001040001FF90000CE03400FEEF7802C333CE33DD
:10011400CED8F9F5828E8312020FC004C005C00642
:10012400C00790000CE0FEA3E07802C333CE33CEC8
:10013400D8F9FF900005E0FBA3E0FAA3E0F98F8271
:100144008E83D007D006D005D00412023F90000E53
:10015400E0FCA3E0FDA3E0FEA3E0FFC004C005C0F3
:1001640006C00790000DE02401FF90000CE034006D
:10017400FEEF7802C333CE33CED8F9FF900005E00A
:10018400FBA3E0FAA3E0F98F828E83D007D006D0D8
:1001940005D00412023F90000DE004F06003020059
:1001A4004490000CE004F002004490000BE004F0E2
:0E01B400600302001990000AE004F002001936
:0101C200221A
:100376009000007401F0A37408F0A37401F09008D3
:1003860000E0FF7E00900003EEF0A3EFF07C007D1E
:10039600041201C3AC06AD07900000E0FBA3E0FA2F
:1003A600A3E0F9120003900004E0FF900000E0FBD8
:0C03B600A3E0FAA3E0F91203D20203CE88
:0403CE0012FF0022F8
:0403D20012FF0222F2
:1001C300C2D5EC30E709B2D5E4C39DFDE49CFCEE57
:1001D30030E715B2D5E4C39FFFE49EFE12029FC32E
:1001E300E49DFDE49CFC800312029F30D507C3E429
:0601F3009FFFE49EFE22C6
:1001F900EB9FF5F0EA9E42F0E99D42F0EC6480C87D
:0602090064809845F0221C
:10020F00BB010DE58229F582E5833AF583020300F0
:10021F005007E92582F80202F4BBFE07E92582F8B0
:10022F0002030CE58229F582E5833AF58302031870
:10023F00BB010DE58229F582E5833AF5830202932E
:10024F005007E92582F802035EBBFE07E92582F815
:04025F0002036A220A
:10026300BB010DE58229F582E5833AF58302033567
:100273005007E92582F8020328BBFE07E92582F827
:10028300020341E58229F582E5833AF58302034EB1
:0C029300ECF0A3EDF0A3EEF0A3EFF022DE
:10029F00BC000BBE0029EF8DF084FFADF022E4CC43
:1002AF00F875F008EF2FFFEE33FEEC33FCEE9DEC0C
:1002BF00984005FCEE9DFE0FD5F0E9E4CEFD22ED52
:1002CF00F8F5F0EE8420D21CFEADF075F008EF2F9C
:1002DF00FFED33FD4007985006D5F0F222C398FD8D
:0502EF000FD5F0EA222A
:0C02F400E6FC08E6FD08E6FE08E6FF2236
:0C030000E0FCA3E0FDA3E0FEA3E0FF2270
:0C030C00E2FC08E2FD08E2FE08E2FF222D
:10031800E493FC740193FD740293FE740393FF222B
:0D032800E6FB08E6F908E6FA08E6CBF82245
:0C033500E0F8A3E0F9A3E0FAA3E0FB224B
:0D034100E2FB08E2F908E2FA08E2CBF8223C
:10034E00E493F8740193F9740293FA740393FB2205
:0C035E00ECF608EDF608EEF608EFF622CB
:0C036A00ECF208EDF208EEF208EFF222CF
:00000001FF
