:030000000203D91F
:0C03D900787FE4F6D8FD75810702036E02
:10029D00900005EBF0A3EAF0A3E9F0A3ECF0A3EDD9
:0102AD00F060
:1002AE0090000C1201CB000000009000101201CB48
:1002BE0000000000E490000AF0A3F0900008E0FEB9
:1002CE00A3E0FF7C007D0412012BC390000BE09F86
:1002DE00EE6480F890000AE0648098504590000526
:1002EE00E0FBA3E0FAA3E0F91201859000181201D9
:1002FE00BF90000CE0FCA3E0FDA3E0FEA3E0FF1224
:10030E0003C490000C1201BF900006E475F00412B5
:10031E00016190000BE004F070A190000AE004F07F
:10032E008099900008E0FEA3E0FF7C007D0412019E
:10033E002BAC06AD07EC1200A8A804A905AA06ABC3
:10034E000790000CE0FCA3E0FDA3E0FEA3E0FF128B
:10035E000006900005E0FBA3E0FAA3E0F90201A578
:10036E007B017A087901900000EBF0A3EAF0A3E993
:10037E00F0900800E0FF7E00900003EEF0FCA3EF8B
:10038E00F0FD12029D900003E0FEA3E0FF7C007DD5
:10039E000412012BEF7802C333CE33CED8F9FF907F
:1003AE000000E0FBA3E0FAA3E02FF9EA3EFA7F0497
:0603BE001203E90203E551
:1003C40012FF84900018E0FCA3E0FDA3E0FEA3E08C
:0503D400FF12FF4622AC
:0403E50012FF0022E1
:0403E90012FF0222DB
:10000300020120EC5D046005E85904700302011647
:100013001200E1580460F6EC4860F2EC7004FDFE57
:10002300FF22C860DB2481C85009C39860025006D0
:1000330002011D9850CAF582E9294B4A7005AB822B
:1000430002010C75F0007C1A7880C3EF9BEE9AEDE9
:1000530099400DC3EF9BFFEE9AFEED99FDE842F048
:10006300DC23ACF0D0E0FFD0E0FED0E0FDAB82209B
:10007300E7101BEB60BAEC2CFCEF33FFEE33FEED25
:1000830033FD0200F8E803F830E705C0F075F0002F
:10009300EF2FFFEE33FEED33FD40B830E7C280AA09
:1000A30075F020800E75F010800575F0087D007ED8
:1000B300007F003392D530D503120177EC33401023
:1000C300EF33FFEE33FEED33FDEC33FCD5F0ED22E1
:0E00D300E5F0247EA2D513CC92E7CDCEFF221D
:1000E100E9D2E7C933E833F892D5EDD2E7CD33EC65
:0700F10033FC5002B2D522DE
:1000F800EC30E7100FBF000C0EBE00080DBD000469
:100108000BEB6014A2D5EB13FCED92E7FD2274FF14
:10011800FCFDFEFF22E480F8A2D574FF13FC7D806D
:03012800E480EF81
:10012B00C2D5EC30E709B2D5E4C39DFDE49CFCEEEF
:10013B0030E715B2D5E4C39FFFE49EFE1201FCC36A
:10014B00E49DFDE49CFC80031201FC30D507C3E465
:06015B009FFFE49EFE225E
:10016100C5F0F8A3E028F0C5F0F8E5821582700229
:060171001583E038F022C6
:0E017700C3E49FFFE49EFEE49DFDE49CFC2299
:10018500BB010789828A8302025D5005E9F80202F4
:1001950051BBFE05E9F802026989828A830202756C
:1001A500BB010789828A830201BF5005E9F8020273
:0A01B50085BBFE05E9F80202912265
:0C01BF00ECF0A3EDF0A3EEF0A3EFF022B3
:1001CB00A8828583F0D083D0821201E21201E21261
:1001DB0001E21201E2E473E493A3C583C5F0C58386
:1001EB00C8C582C8F0A3C583C5F0C583C8C582C87E
:0101FB0022E1
:1001FC00BC000BBE0029EF8DF084FFADF022E4CCE7
:10020C00F875F008EF2FFFEE33FEEC33FCEE9DECAF
:10021C00984005FCEE9DFE0FD5F0E9E4CEFD22EDF5
:10022C00F8F5F0EE8420D21CFEADF075F008EF2F3F
:10023C00FFED33FD4007985006D5F0F222C398FD30
:05024C000FD5F0EA22CD
:0C025100E6FC08E6FD08E6FE08E6FF22D9
:0C025D00E0FCA3E0FDA3E0FEA3E0FF2214
:0C026900E2FC08E2FD08E2FE08E2FF22D1
:10027500E493FC740193FD740293FE740393FF22CF
:0C028500ECF608EDF608EEF608EFF622A5
:0C029100ECF208EDF208EEF208EFF222A9
:00000001FF
